:100003002020202020484F542D353120202020202F
:1000130020202020202020202020202020202020DD
:100023002020B5A5C6ACBBFABFAAB7A2B0E5202075
:1000330020202020B6ABC1F7B5E7D7D3202020205E
:10004300002020B0D7C8D5D2C0C9BDBEA1A3AC2063
:10005300202020D3FBC7EEC7A7C0EFC4BFA3AC20AB
:10006300202020BBC6BAD3C8EBBAA3C1F7A1A320F3
:10007300202020B8FCC9CFD2BBB2E3C2A5A1A320E4
:100083002000000000000000000F780000000000C6
:100093000000000000000000003C1E000000000003
:1000A300000000000000000000F0078000000000D6
:1000B300000000000000000003C001E00000000099
:1000C30000000000000000000F00007800000000A6
:1000D30000000000000000003C00001E00000000C3
:1000E3000000000000000000F00000078000000096
:1000F3000000000000000003C0000001C000000079
:10010300000000000000000F00000000700000006D
:10011300000000000000003C000000001C00000084
:1001230000000000000000F0000000001E000000BE
:1001330000000000000003C0000000007E0000007B
:100143000000000000000F0000000001E6000000B6
:100153000000000000003C000000000782000000D7
:10016300000000000000F0000000001E020000007C
:10017300000000000001E000000000780300000020
:10018300000000000001E000000001E003000000A7
:10019300000000000001780000000780010000005B
:1001A3000000000000031E0000001E000700000006
:1001B3000000000000030780000078001F0000001B
:1001C30000000000000201E00001E0003F00000029
:1001D30000000000000600781F078001F180000086
:1001E30000000000000E001E3F9E0003F980000087
:1001F30000000000000E0007B378000FF980000034
:1002030000000000000F8001FFE0007998800000EB
:1002130000000000000FE0007F8000E0D8800000B5
:1002230000000000000FF8000C0007E0F880000059
:1002330000000000000E7E000C001FF0F88000009C
:1002430000000000000E1F800C007E70DC800000A8
:1002530000000000000F07E00C01E3705CC0000029
:1002630000000000000F81F80C0783705FC00000DE
:1002730000000000000DE07E0C1FC1F05FC0000015
:1002830000000000000F783F8C7FC1B847C000001A
:1002930000000000000F1E0FEDECE1B8C7C0000026
:1002A30000000000001F0783FFC6E1B9C7C00000BC
:1002B30000000000001F07E0FFE7E1BF07C00000E8
:1002C30000000000001F07F83FE7E1BF07C0000080
:1002D30000000000001F079E0CE6E18F07C000002E
:1002E30000000000001F07878CE6E38F83C0000037
:1002F30000000000001F0F81EDE6E70F83C0000040
:1003030000000000001F07007FE6FE0F834000008F
:1003130000000000001F00001E76FE0F8340000057
:1003230000000000001E000000721E0F834000004A
:1003330000000000001E0000007E1A0F8340000032
:1003430000000000001E0000007C1A0F83C00000A4
:1003530000000000000C000000781A0F83C00000AA
:10036300000000000000000000781A0783C00000AE
:100373000000000000000000007C1E078000000059
:100383000000000000000000007C1F078000000048
:100393000000000000000000007C1F078000000038
:1003A3000000000000000000007C1F078000000028
:1003B3000000000000000000007C1F070000000098
:1003C3000000000000000000007C1F000000000887
:1003D3000000000000000000007C1F00000000106F
:1003E3000040000000000000003C1F00000000FF70
:1003F3000820000000000000003C1F00000000284F
:1004030005FC00000000000000340C000000004860
:10041300004000000000000000340000000000FF66
:1004230008880000000000000034000000000008FD
:1004330005FC000000000000003C00000000004A32
:1004430000A8000000000000003C0000000000893C
:1004530004A80000000000000010000000000108D4
:1004630088A8000000000000000000000000003821
:1004730010AA0000000000000000000000000008B7
:02048300012E48
:1006A400E4FEFDFCEFA804088002C313D8FC540147
:1006B400FDC374079CFBEDA803088002C333D8FC78
:0806C40042060CBC08DEAF0683
:0106CC00220B
:10052E007F287E001206F5D2A27F017E001206F50C
:10053E00C2A47F017E001206F5D2A47F0A7E0012AD
:10054E0006F5C2007F301206821206F1C2007F301D
:10055E001206827F257E001206F5C2007F08120663
:10056E00821206F1C2007F101206821206F1C2003C
:10057E007F0C1206821206F1C2007F011206827FE4
:10058E000A7E001206F5C2007F061206827F647E86
:04059E00000206F55C
:1005A2007F287E001206F5D2A27F017E001206F598
:1005B200C2A47F017E001206F5D2A47F0A7E001239
:1005C20006F5C2007F361206821206F1C2007F369D
:1005D2001206827F257E001206F5C2007F3E1206B9
:1005E200821206F1C2007F011206827F647E00023F
:0205F20006F50C
:10063B001205A27E007F851204857FC87E001206FC
:10064B00D112052E1206F17E007F031205F412065D
:10065B00CD1206CD12052E1206F17E007F44120537
:0C066B00F41206CD1206CD12052E80C43C
:0405F4008E088F09D5
:1005F800C2007F801206821206F1E4F50A1206771D
:100608000509E50970020508050AE50AC3942040B2
:10061800ECC2007F901206821206F1750A201206BB
:10062800770509E50970020508050AE50AC394403B
:0206380040EC94
:01063A00229D
:0B067700850982850883E493FFD20010
:100682008F0EC2A6A20092A57F017E001206F5AFD0
:100692000E1206A48F80D2A77F017E001206F5C239
:0206A200A7228D
:0406CD007FF07E003C
:1006D100E4FDFCC3ED9FEC9E5015E4FBFA0BBB005F
:0F06E100010ABA07F8BBD0F50DBD00010C80E48B
:0106F00022E7
:0406F1007F647E00A4
:1006F500E4FDFCC3ED9FEC9E5015E4FBFA0BBB003B
:0F070500010AEB640A4A70F50DBD00010C80E497
:0107140022C2
:040485008E088F0945
:10048900E4F50AF50BE50B2480FFC200120682C2CF
:10049900007F80120682E4F50CF50D850982850836
:1004A9008312067D0509E50970020508050DE50DAC
:1004B9007002050CC39410E50C6480948040DC053F
:1004C9000BE50B7002050AC39420E50A6480948049
:1004D90040B3E4F50AF50BE50B2480FFC2001206D0
:1004E90082C2007F88120682E4F50CF50D85098227
:1004F90085088312067D0509E50970020508050DC1
:10050900E50D7002050CC39410E50C6480948040DD
:10051900DC050BE50B7002050AC39420E50A64802B
:04052900948040B3C7
:01052D0022AB
:03000000020715DF
:0C071500787FE4F6D8FD75812002063BD9
:00000001FF
